:020000040000FA
:100000000C9447050C946F050C946F050C946F05C8
:100010000C946F050C946F050C946F050C94D61A14
:100020000C946F050C946F050C946F050C946F0580
:100030000C946F050C946F050C946F050C946F0570
:100040000C948C1A0C946F050C946F050C946F052E
:100050000C946F050C946F050C946F050C946F0550
:100060000C94321B0C946F0500000000003E5B4FA7
:100070005B3E3E6B4F6B3E1C3E7C3E1C183C7E3C08
:10008000181C577D571C1C5E7F5E1C00183C180016
:10009000FFE7C3E7FF0018241800FFE7DBE7FF30A6
:1000A000483A060E2629792926407F050507407F14
:1000B00005253F5A3CE73C5A7F3E1C1C08081C1C87
:1000C0003E7F14227F22145F5F005F5F06097F017D
:1000D0007F006689956A606060606094A2FFA29468
:1000E00008047E040810207E201008082A1C080836
:1000F0001C2A08081E101010100C1E0C1E0C303884
:100100003E3830060E3E0E06000000000000005F84
:1001100000000007000700147F147F14242A7F2AA0
:100120001223130864623649562050000807030062
:10013000001C2241000041221C002A1C7F1C2A08AE
:10014000083E080800807030000808080808000011
:1001500060600020100804023E5149453E00427F85
:10016000400072494949462141494D331814127FD4
:100170001027454545393C4A494931412111090774
:100180003649494936464949291E000014000000F5
:1001900040340000000814224114141414140041C7
:1001A00022140802015909063E415D594E7C121184
:1001B000127C7F494949363E414141227F414141BC
:1001C0003E7F494949417F090909013E4141517337
:1001D0007F0808087F00417F41002040413F017FA8
:1001E000081422417F404040407F021C027F7F0470
:1001F00008107F3E4141413E7F090909063E4151B9
:10020000215E7F09192946264949493203017F01A8
:10021000033F4040403F1F2040201F3F4038403FA9
:10022000631408146303047804036159494D4300BF
:100230007F4141410204081020004141417F0402F6
:10024000010204404040404000030708002054548D
:1002500078407F284444383844444428384444286B
:100260007F385454541800087E090218A4A49C78BE
:100270007F0804047800447D40002040403D007F1A
:100280001028440000417F40007C047804787C08FA
:100290000404783844444438FC18242418182424CE
:1002A00018FC7C08040408485454542404043F44B3
:1002B000243C4040207C1C2040201C3C4030403CE2
:1002C00044281028444C9090907C4464544C440042
:1002D00008364100000077000000413608000201A6
:1002E0000204023C2623263C1EA1A161123A404092
:1002F000207A38545455592155557941225454780F
:1003000042215554784020545579400C1E527212A7
:100310003955555559395454545939555454580030
:1003200000457C410002457D420001457C407D1234
:1003300011127DF0282528F07C5455450020545496
:100340007C547C0A097F4932494949323A44444441
:100350003A324A4848303A4141217A3A424020787C
:10036000009DA0A07D3D4242423D3D4040403D3C7D
:1003700024FF2424487E4943662B2FFC2F2BFF09A2
:1003800029F620C0887E0903205454794100004496
:100390007D413048484A32384040227A007A0A0A81
:1003A000727D0D19317D2629292F282629292926F4
:1003B00030484D4020380808080808080808382F39
:1003C00010C8ACBA2F102834FA00007B00000814C3
:1003D0002A142222142A14085500550055AA55AA99
:1003E00055AAFF55FF55FF000000FF00101010FF39
:1003F00000141414FF001010FF00FF1010F010F094
:10040000141414FC001414F700FF0000FF00FF1484
:1004100014F404FC141417101F10101F101F1414D0
:10042000141F00101010F0000000001F101010101A
:100430001F10101010F010000000FF10101010100E
:1004400010101010FF10000000FF140000FF00FF4C
:1004500000001F10170000FC04F4141417101714E8
:1004600014F404F40000FF00F7141414141414140A
:10047000F700F7141414171410101F101F1414147D
:10048000F4141010F010F000001F101F0000001FE7
:1004900014000000FC140000F010F01010FF10FF1A
:1004A000141414FF141010101F00000000F010FFAF
:1004B000FFFFFFFFF0F0F0F0F0FFFFFF0000000093
:1004C00000FFFF0F0F0F0F0F3844443844FC4A4A17
:1004D0004A347E02020606027E027E0263554941CC
:1004E000633844443C04407E201E2006027E020203
:1004F00099A5E7A5991C2A492A1C4C7201724C3017
:100500004A4D4D303048784830BC625A463D3E49ED
:100510004949007E0101017E2A2A2A2A2A44445F91
:10052000444440514A444040444A51400000FF0185
:1005300003E080FF000008086B6B08361236243693
:10054000060F090F060000181800000010100030F8
:1005500040FF0101001F01011E00191D1712003C80
:100560003C3C3C0000000000000103070F1F3F7FE0
:100570000080C0E0F0F8FCFEDB40A4A62EAF200017
:10058000A1C8D300408DAED580A800006000000057
:100590000000000000000000000000E0000000007B
:1005A00000000000000000000001E000000000006A
:1005B000000000000000000001F00000000000004A
:1005C0000000000000000003F00000000000000038
:1005D00000000000000007F0000000000000000024
:1005E000000000000007F80000000000000000000C
:1005F000000000000FF800000003C0007E000001B2
:10060000E0007F0FF800000003C000FE000001E0E2
:1006100000FFEFF800000003C000FE000001E00052
:10062000FFFFF800000003C000F00000000F007F93
:10063000FE7FC0000003C000F00000000F003FFE7E
:100640007FF83FF1FBCFFCFEF3BC3DEFE01FFE7FE8
:10065000FF7FFBFFDFFEFEFFBC3DEFE01FC6FFFF9D
:100660007FFBFFDFFEFEFFBC3DEFE00FE3C7FE7840
:100670007BC3DE1EF0FFBC3DEF0007FF87FC787BED
:10068000C3DE1EF0F83C3DEF0001FFFFF0007BC32E
:10069000C01EF0F03C3DEF0001F37FE03FFBC3CF15
:1006A000FEF0F03C3DEF0003E33F807FFBC3DFFE45
:1006B000F0F03C3DEF0007E73C00787BC3DE1EF026
:1006C000F03C3DEF0007FFBE00787BC3DE1EF0F07C
:1006D0003C3DEF0007FFFE00787BC3DE1EF0F03CE0
:1006E0003DEF000FFFFE007FFBFFDFFEF0F03FFD60
:1006F000EFE00FFFFF007FFBFFDFFEF0F03FFDEFBD
:10070000E00FF9FF003E79F9CF9EF0F01F3DE7E0E2
:100710001FF1FF0000000000000000000000001FAB
:1007200080FF007FFFFFFFFFFFFFFFFFFFE01C00D8
:100730007F007FFFFFFFFEB46D888D18E000001F73
:10074000007FFFFFFFFE95AD7DB577E000000F0055
:100750007FFFFFFFFEA5AD9D8D19E0000006007F25
:10076000FFFFFFFEB5ADEDB57EE00000000000012B
:100770008000000000000000000003800000000076
:10078000000000000007C0000000000000000000A2
:1007900007C00000000000000000000FC0000000C3
:1007A0000000000000001FE000000000000000004A
:1007B000001FE00000000000000000003FE000001B
:1007C000000000000000003FF000000000000000FA
:1007D00000007FF0000000000000001FF87FF00024
:1007E0000000000000003FFE7FF00000000000005D
:1007F000003FFF7FF0000000000000001FFFFBE053
:10080000000000000000000FFFF9FFC00000000022
:1008100000000FFFF9FFF800000000000007FFF1E3
:10082000FFFF00000000000003FC73FFFF800000DA
:1008300000000001FE3FFFFF80000000000000FFFD
:100840001E0FFF000000000000007FFE1FFC0000E4
:1008500000000000003FFFFFF80000000000000063
:100860000FDFFFE0000000000000001F19FFC000C4
:100870000000000000003F3CFF00000000000000FE
:10088000007E7CF800000000000000007FFE7C007D
:1008900000000000000000FFFFFC0000000000005E
:1008A0000000FFFFFE0000000000000000FFFFFE50
:1008B0000000000000000001FFEFFE00000000004B
:1008C000000001FFCFFE0000000000000003FF0752
:1008D000FE0000000000000003FC07FE0000000016
:1008E00000000003F003FE00000000000000018093
:1008F00000FE000000000000000000007E0000007C
:10090000000000000000003E0000000000000000A9
:1009100000000C000000000000078000FC00000345
:10092000C0000000078001FC000003C000000007B9
:100930008001FC000003C0000000078001E000000F
:10094000001E000000078001E00000001E007FE3A1
:10095000F79FF9FDE7787BDFC0FFF7FFBFFDFDFFE5
:10096000787BDFC0FFF7FFBFFDFDFF787BDFC0F0C6
:10097000F787BC3DE1FF787BDE00F0F787BC3DE107
:10098000F0787BDE0000F787803DE1E0787BDE00D9
:100990007FF7879FFDE1E0787BDE00FFF787BFFDF3
:1009A000E1E0787BDE00F0F787BC3DE1E0787BDEBC
:1009B00000F0F787BC3DE1E0787BDE00F0F787BC14
:1009C0003DE1E0787BDE00FFF7FFBFFDE1E07FFB6C
:1009D000DFC0FFF7FFBFFDE1E07FFBDFC07CF3F38B
:1009E0009F3DE1E03E7BCFC0000000000000000022
:1009F000000000FFFFFFFFFFFFFFFFFFFFC0FFFF43
:100A0000FFFFFD68DB111A31C0FFFFFFFFFD2B5A0E
:100A1000FB6AEFC0FFFFFFFFFD4B5B3B1A33C0FFDC
:100A2000FFFFFFFD6B5BDB6AFDC0000000002400E0
:100A300027002A00000000002300260029000000F3
:100A4000000800020100000304070000000000008D
:100A50000000010204081020408001020408102058
:100A600001020408102000000000250028002B00CF
:100A70000404040404040404020202020202030344
:100A800003030303022200FF2100511C67201124ED
:100A90001FBECFEFD8E0DEBFCDBF12E0A0E0B1E0D7
:100AA000E8ECFBE402C005900D92A03BB107D9F73A
:100AB00024E0A0EBB2E001C01D92AB3CB207E1F72D
:100AC00015E0C6E4D5E004C02197FE010E94A521EF
:100AD000C534D107C9F70E94AC1C0C94D7250C94DF
:100AE00000000895833081F028F4813099F082303D
:100AF000A9F008958730A9F08830C9F08430B1F4A6
:100B0000809180008F7D03C0809180008F778093DB
:100B10008000089584B58F7784BD089584B58F7D56
:100B2000FBCF8091B0008F778093B00008958091C3
:100B3000B0008F7DF9CFCF93DF93282F30E0F901FC
:100B4000E25CF54F8491F901EE5AF54FD491F90129
:100B5000E059F54FC491CC23A1F081110E94720598
:100B6000EC2FF0E0EE0FFF1FEC5CF54FA591B49178
:100B7000EC91ED2381E090E009F480E0DF91CF91EA
:100B8000089580E090E0FACF1F93CF93DF93282F52
:100B900030E0F901E25CF54F8491F901EE5AF54F2E
:100BA000D491F901E059F54FC491CC23A9F0162F47
:100BB00081110E947205EC2FF0E0EE0FFF1FEA5941
:100BC000F54FA591B4918FB7F894EC91111108C02D
:100BD000D095DE23DC938FBFDF91CF911F910895D5
:100BE000DE2BF8CFCF93DF9390E0FC01EE5AF54F68
:100BF00024918059954FFC0184918823D1F090E095
:100C0000880F991FFC01E65DF54FA591B491FC0199
:100C1000EA59F54FC591D491623071F49FB7F894B9
:100C20003C91822F809583238C93E8812E2B2883FF
:100C30009FBFDF91CF9108958FB7F894EC912E2B41
:100C40002C938FBFF6CF4F925F926F927F928F92CD
:100C50009F92AF92BF92CF92DF92EF92FF920F934B
:100C60001F93CF938C014A015B0180910201863072
:100C700099F08F3F09F46FC0CF911F910F91FF90B2
:100C8000EF90DF90CF90BF90AF909F908F907F902C
:100C90006F905F904F900895E4E8FAE0C491C7FD2B
:100CA000EBCF61E086E00E94F2052801712C612CF7
:100CB000CC23E9F0980150E040E0C23009F0BAC01E
:100CC00028013A0160E970ED83E090E00E941A216A
:100CD00069017A0181E0C81AD108E108F1088FEFB3
:100CE000C816D104E104F10409F00CF4DCC068E496
:100CF00078EE81E090E0A30192010E941A2169013F
:100D00007A0181E0C81AD108E108F108CC2309F47E
:100D1000CCC0C23009F01BC18FEFC816D104E1046A
:100D2000F10409F00CF41BC164E274EF80E090E080
:100D3000A30192010E941A2169017A0181E0C81A77
:100D4000D108E108F10885E09091B100987F892BE6
:100D50008093B100C6C086E080930201E4E8FAE027
:100D6000C491CF3F09F488CFC13021F150F0C23097
:100D700009F43EC0C7FD80CF61E086E00E94F20525
:100D800099CF14BC15BC84B5826084BD85B58160E3
:100D900085BDE6E7FAE0E491F0E0EE0FFF1FEA59C7
:100DA000F54F85919491E8E5FAE0E491E093C7036B
:100DB000C0E077CF10928000109281008091810076
:100DC00088608093810080918100816080938100A0
:100DD000E6E7FAE0E491F0E0EE0FFF1FEA59F54F85
:100DE00085919491E8E5FAE0E491E093C60359CF48
:100DF0001092B0001092B1008091B0008260809398
:100E0000B0008091B10081608093B100E6E7FAE024
:100E1000E491F0E0EE0FFF1FEA59F54F85919491B0
:100E20009093C5038093C403E8E5FAE0E491E0936E
:100E3000C30337CF60E072E18AE790E00E941A2195
:100E400069017A0181E0C81AD108E108F108C130CE
:100E500009F047C080918100887F81608093810084
:100E600040C0D0928900C09288002093CC03309378
:100E7000CD034093CE035093CF0380916F008260E7
:100E800080936F00F9CEC092B3002093C8033093D3
:100E9000C9034093CA035093CB03809170008260D2
:100EA00080937000E9CE83E04FCF93E08FEFC816B8
:100EB000D104E104F10489F084F062E17AE780E092
:100EC00090E0A30192010E941A2169017A0181E058
:100ED000C81AD108E108F10894E085B5887F892B0C
:100EE00085BDD801AA0FBB1FA50194010E9439211D
:100EF00028EE33E040E050E00E944C21C13009F47C
:100F0000B0CFC23009F4BFCFC111B6CEC7BC209359
:100F1000D0033093D1034093D2035093D3038091F5
:100F20006E00826080936E00A7CE62E17AE780E077
:100F300090E0A30192010E941A2169017A0181E0E7
:100F4000C81AD108E108F108C1E086E0FDCE8FEFB4
:100F5000C816D104E104F10409F03CF7C1E084E0D3
:100F6000F3CE3FB7F8948091BF039091C003A09156
:100F7000C103B091C20326B5A89B05C02F3F19F04D
:100F80000196A11DB11D3FBFBA2FA92F982F882709
:100F9000BC01CD01620F711D811D911D42E0660FE4
:100FA000771F881F991F4A95D1F708958F929F92B6
:100FB000AF92BF92CF92DF92EF92FF924B015C0112
:100FC0000E94B1076B017C010E94B1076C197D0979
:100FD0008E099F09683E734081059105A8F321E0C1
:100FE000821A9108A108B10888EEC80E83E0D81EC5
:100FF000E11CF11C81149104A104B10429F7FF90B4
:10100000EF90DF90CF90BF90AF909F908F9008951A
:10101000089508959091020189130BC0E4E8FAE065
:10102000E4919FEF90930201E13049F028F0E23023
:1010300061F060E00C94C40510926E00FACF9091BC
:101040006F009D7F90936F00F4CF909170009D7F13
:101050009093700091E09093B0009091B100987FD0
:1010600094609093B1001092B300E3CFAF92BF921F
:10107000CF92DF92EF92FF920F931F93CF93DF9364
:101080006C017B018B01040F151FEB015E01AE1893
:10109000BF08C017D10759F06991D601ED91FC91B5
:1010A0000190F081E02DC6010995892B79F7C501E2
:1010B000DF91CF911F910F91FF90EF90DF90CF9034
:1010C000BF90AF900895EF92FF920F931F93CF932D
:1010D000DF93EC01EC80FD806E157F050CF070C095
:1010E00057FF04C0240F351F50E040E08E819F81E0
:1010F000FA01E20FF31F8E179F071CF49C01241BBB
:10110000350B121613060CF05BC0922F842F8695B8
:10111000869586958E9DD0018F9DB00D11246A0F06
:101120007B1FAF8DB8A1A60FB71F477049F188E0AC
:10113000841B482F682F70E0FB01E059FA4FE491BF
:10114000281708F063C0621B71092FEF30E002C05E
:10115000359527956A95E2F7E2230130110539F0BC
:10116000B0F10230110561F58C91E82702C08C9135
:10117000E82BEC93941720F12C813D81A20FB31F33
:10118000E92FE41BE83078F00230110521F58E2FAD
:101190009C9190959C932C813D81A20FB31F885008
:1011A0008830B0F7E770EE2359F0F0E0E859FA4FD5
:1011B000E49101301105F9F010F10230110519F137
:1011C000DF91CF911F910F91FF90EF900895E095DF
:1011D0008C91E823CECF81E00115110509F480E060
:1011E00081959E2F8C932C813D81A20FB31F985027
:1011F0009830C0F7D7CF8C91E82BEC93E1CFE095F6
:101200008C91E823FACF8C91E827F7CF01301105B4
:1012100009F4ADCFE0F20230110509F4A5CFAE0D0F
:10122000BF1DAECF0F931F93CF93DF9377FF04C003
:10123000260F371F70E060E0DC011496CD91DC9141
:10124000FB01E20FF31FCE17DF071CF49E01261BE4
:10125000370B121613064CF5FA0157FD3796A3E02B
:10126000F595E795AA95E1F7EC9FD001ED9FB00DBC
:10127000FC9FB00D11246A0F7B1FDC015F96ED917E
:10128000FC91E60FF71F4770552781E090E001C001
:10129000880F4A95EAF7482F0130110559F0A8F058
:1012A0002E0F3F1F02301105E1F0DF91CF911F910A
:1012B0000F9108952E0F3F1FE217F307B1F38191AD
:1012C000DF011197842B8C93F7CF80952E0F3F1F52
:1012D000E217F30751F39191DF01119798239C9343
:1012E000F7CFE217F30709F38191DF011197842704
:1012F0008C93F7CF0F931F93FA01DC0156964C9114
:1013000056974230E9F04330A1F1413061F514962F
:101310004D915C91DA01AE1BBF0BFD01E21BF30B9B
:1013200077FD0BC0DC0116964D915C916417750733
:1013300024F4AB01BF010E9412091F910F9108957F
:1013400014964D915C91DA01A61BB70BBD0161505B
:101350007109DC0116964D915C91DA01AE1BBF0B51
:10136000FD01E21BF30B77FDE8CFAF010E9463089C
:10137000E4CF16964D915C91DA01A61BB70BBD0127
:1013800061507109CDCF0F931F93FA01DC0156967E
:101390004C9156974230A9F0433091F1413019F504
:1013A00014964D915C91DA01AE1BBF0BFD01319794
:1013B000F7FD04C0AB01BF010E9463081F910F91AC
:1013C000089514964D915C91DA01A61BB70BBD01EF
:1013D000DC0116964D915C91DA01AE1BBF0BFD014D
:1013E0003197621B730BF7FDE9CFDC0116964D9127
:1013F0005C91E417F50714F7AF010E941209DECFE4
:1014000016964D915C91DA01A61BB70BBD01621BCC
:10141000730BCECFFC0177FD64C080859185681782
:1014200079070CF05EC057FD5CC082859385481734
:1014300059070CF056C086898230B1F0833029F10B
:10144000813041F484819581841B950BAB01BC01F3
:10145000615071092130310509F108F443C022308F
:10146000310509F463C0089584819581DC01A61BD0
:10147000B70BBD016150710986819781DC01A41B06
:10148000B50BAD0141505109E5CF86819781861B8F
:10149000970BBA01AC0141505109DCCFCA0157FD8D
:1014A0000796A3E095958795AA95E1F7A481B58164
:1014B0008A9F90018B9F300D9A9F300D1124620FEF
:1014C000731F078CF0A1E02DE60FF71F477055271B
:1014D00021E030E001C0220F4A95EAF78081822B9B
:1014E00080830895CA0157FD079633E09595879547
:1014F0003A95E1F7A481B5818A9F90018B9F300DC9
:101500009A9F300D1124620F731F078CF0A1E02DFC
:10151000E60FF71F4770552781E090E001C0880F64
:101520004A95EAF7809590818923DACFCA0157FD61
:10153000079623E0959587952A95E1F7A481B581D3
:101540008A9F90018B9F300D9A9F300D1124620F5E
:10155000731F078CF0A1E02DE60FF71F477055278A
:1015600021E030E001C0220F4A95EAF7808182270E
:10157000B7CF08958EBD00000DB407FEFDCF8EB528
:1015800008958CBD9DBD08950895FC016370668B20
:101590008481958126813781613039F0633029F06B
:1015A00091878087338722870895318720879387A3
:1015B000828708952F923F924F925F926F927F920F
:1015C0008F929F92AF92BF92CF92DF92EF92FF9253
:1015D0000F931F93CF93DF93CDB7DEB76A970FB604
:1015E000F894DEBF0FBECDBF9A8F898F7A8369834F
:1015F0004A01D22E18870F833701BC2CDC01599683
:101600002D913C915A972115310509F015C1189675
:101610008D919C911997681779070CF0D7C11A968C
:101620008D919C91481759070CF0D0C14C2C512C2E
:10163000B6E0CB9E600D711D11247C876B8716165A
:1016400017060CF0C3C1EA2DF0E0FA87E98793E0B2
:10165000EE0FFF1F9A95E1F7F88BEF87CF01840F0C
:10166000951F181619060CF0B1C1A98DBA8D5896A0
:101670008C91811104C0BFEABD1508F4D394A98DE3
:10168000BA8DED91FC9111970284F385E02DCD0187
:101690000995B5E0DB9EC0011124E981FA81FC8344
:1016A000EB83312C212C9C0128593F4F388F2F8BF5
:1016B0004A2D50E05E8B4D8BEF89F88DE20DF31DC6
:1016C00044919E828D82D12CC12C69817A81620DD8
:1016D000731D7A8B698B842F90E09C8B8B8BE98DAB
:1016E000FA8DA081B18140FF82C0F1E0BF126FC0CE
:1016F000AF126DC01C96ED91FC912F813885A4012D
:101700004C0D5D1D69897A89898D9A8D0995EB89C2
:10171000FC89F595E7954E2F5FEFC51AD50A6D81C7
:101720007E818D899E89680F791F7E836D8398E005
:10173000C916D10481F6AFEF2A1A3A0AEB81FC816F
:10174000E40DF51DFC83EB83F5E02F16310409F061
:10175000B3CF2F81388526153705B9F0A98DBA8DFD
:10176000ED91FC91B1E0BB1257C0AB1255C069813D
:101770007A816B5F7F4F0088F189E02D830128E03B
:1017800030E0A401898D9A8D0995A98DBA8DED91CE
:10179000FC9111970688F789E02DCD016A960FB666
:1017A000F894DEBF0FBECDBFDF91CF911F910F9197
:1017B000FF90EF90DF90CF90BF90AF909F908F9071
:1017C0007F906F905F904F903F902F9009941E965E
:1017D000ED91FC91EF80F88409851A8592014D8185
:1017E0005E816B817C81898D9A8D099590CF2F8147
:1017F00038852615370509F48ACF31E0B31207C0C2
:10180000A31205C01C96ED91FC91930178CF1E9612
:10181000ED91FC917301E0CF6B857C8564197509AE
:101820000684F785E02D73010F8518899201A401C4
:10183000898D9A8D0995A9CFF901349694913297A3
:1018400045915491D91AB7E0DB9E400D511D1124EA
:10185000F901259134913C8B2B8BFA012590349022
:10186000FA013296749031963491398B32966490A5
:101870003196449041E04C1518F04A1508F07FC0AD
:10188000662D062C000C770B7C836B83842D042C37
:10189000000C990B9E838D83A98DBA8DED91FC91DF
:1018A00011970284F385E02DCD010995512CD12C9F
:1018B000C12CEA2DF0E0FA87E9872B2D30E03C8738
:1018C0002B87A401440D511D47FC5A95588F4F8B0F
:1018D00069817A81660D711D67FC7A957E876D87B7
:1018E0007989C71608F051CF2C2D30E04D815E81EB
:1018F000420F531FA985BA854A9FC0014B9F900D87
:101900005A9F900D1124FC01E80DF91DF88BEF870B
:10191000852D612C4F89588D420F531F5E8B4D8B47
:10192000671408F050C044244394480E877041F473
:10193000C1010196EB89FC89E20DF31DD4901C01D5
:10194000D7FE19C0A98DBA8DED91FC91662D70E07E
:10195000B1E0BB1219C0AB1217C02D853E85620FD6
:10196000731F0484F585E02D2F8138854D895E89AC
:10197000898D9A8D0995DD0C6394842DD1CF1E82BB
:101980001D821C821B8288CF4B815C81640F751F76
:10199000AB85BC856A9FC0016B9F900D7A9F900DAF
:1019A000112469817A81680F791F0684F785E02DFB
:1019B000EF80F88409851A859D014F855889898DA6
:1019C0009A8D0995D8CF570CC3948ACF6A960FB6D3
:1019D000F894DEBF0FBECDBFDF91CF911F910F9165
:1019E000FF90EF90DF90CF90BF90AF909F908F903F
:1019F0007F906F905F904F903F902F9008958F92BF
:101A00009F92AF92CF92EF92FF920F931F93CF933B
:101A1000DF93EC01262F898D9A8D009709F051C034
:101A20006A30D1F41D861C868D8948E0849F900120
:101A300011248E859F85820F931F9F878E8781E05B
:101A400090E0DF91CF911F910F91FF90EF90CF9099
:101A5000AF909F908F9008956D3089F3CC88AD88BA
:101A60008F898823C1F08C859D8536E0C39E800DCB
:101A7000911D1124488559854817590764F44E85EE
:101A80005F851D861C8638E0A39EC0011124840F4B
:101A9000951F9F878E87EA88FB88088919894E855C
:101AA0005F856C857D85CE010E94DA0A2C898C8544
:101AB0009D8546E0249F800D911D11249D878C8774
:101AC000BECF6A3069F41D861C86FC013896E4910D
:101AD0002D898E859F85E29F800D911D1124ADCFAC
:101AE0006D3009F4ACCFFC0134963491631708F4DF
:101AF000A6CF3296E491E61708F4A1CFFC01329606
:101B000085909490462F431B342F47E0349F800CE0
:101B1000911C1124F401329634913196E4913323CF
:101B2000A9F1EE2399F1CC88F4013596E491AD88C2
:101B30004F89442301F10E2E000CFF0BE30FF11D22
:101B4000CE9EA001CF9E500D11246C857D85460F41
:101B5000571F68857985641775076CF44E855F8516
:101B60001D861C86FC013896E491AE9E400D511DE9
:101B700011245F874E87EA88FB88088919894E857A
:101B80005F856C857D85CE010E94DA0AF40134966A
:101B9000E4912C898C859D85E29F800D911D1124F7
:101BA0008DCF6F927F928F929F92AF92BF92CF9282
:101BB000DF92EF92FF920F931F93CF93DF93EC018D
:101BC0006B015A0139014801E881F9810284F385EA
:101BD000E02D0995E881F9810288F389E02D8701DC
:101BE0009301A501B601CE010995A501480D591D26
:101BF00041505109E881F9810288F389E02D930170
:101C0000B601CE010995E881F9810088F189E02DBE
:101C10009401A501B601CE010995C60CD71CB601E9
:101C200061507109E881F9810088F189E02D940102
:101C3000A501CE010995E881F9810688F789E02D93
:101C4000CE01DF91CF911F910F91FF90EF90DF9028
:101C5000CF90BF90AF909F908F907F906F9009949E
:101C60006F927F928F929F92AF92BF92CF92DF92AC
:101C7000EF92FF920F931F93CF93DF935C01EB01E1
:101C80006A01490138018701DC01ED91FC9162177D
:101C9000730719F5641675062CF0962D872D3A01F9
:101CA000C92ED82E9601261937092F5F3F4F048C75
:101CB000F58DE02DA301BE01C5010995DF91CF91FE
:101CC0001F910F91FF90EF90DF90CF90BF90AF905A
:101CD0009F908F907F906F9008954615570591F4CF
:101CE0002617370724F0892D4B01C22FD82F9E01CC
:101CF000281939092F5F3F4F068CF78DE02DA6017B
:101D0000B401DACF0284F385E02D0995D501ED9178
:101D1000FC910488F589E02D83019401A601BE01A0
:101D2000C5010995D501ED91FC910688F789E02D53
:101D3000C501DF91CF911F910F91FF90EF90DF9040
:101D4000CF90BF90AF909F908F907F906F900994AD
:101D5000EF92FF920F931F93DC011A960D911C9145
:101D60001B9718962D913C911997ED91FC9100A02D
:101D7000F1A1E02D7B0150E040E070E060E00995CA
:101D80001F910F91FF90EF9008954F925F926F9285
:101D90007F928F929F92AF92BF92CF92DF92EF92FB
:101DA000FF920F931F93CF93DF936C012B015A0186
:101DB00039014801DC01ED91FC910284F385E02DAD
:101DC0000995E201640C751CD601ED91FC91C615D4
:101DD000D7055CF40088F189E02D87019401A50105
:101DE000BE01C60109952196EFCF0688F789E02D3F
:101DF000C601DF91CF911F910F91FF90EF90DF907F
:101E0000CF90BF90AF909F908F907F906F905F909A
:101E10004F9009948F929F92AF92BF92CF92DF9290
:101E2000EF92FF920F931F93CF93DF93EC015B012F
:101E30004A016901E881F9810284F385E02D099561
:101E400095012C0D3D1D21503109E881F98104884F
:101E5000F589E02D78018401A401B501CE01099531
:101E6000E881F9810688F789E02DCE01DF91CF91D5
:101E70001F910F91FF90EF90DF90CF90BF90AF90A8
:101E80009F908F9009948F929F92AF92BF92CF9222
:101E9000DF92EF92FF920F931F93CF93DF93EC01AA
:101EA0005B014A0169017801E881F9810284F385C7
:101EB000E02D0995C80CD91C860101501109E88153
:101EC000F9810488F589E02D9501A401B501CE01C1
:101ED0000995E881F9810688F789E02DCE01DF9127
:101EE000CF911F910F91FF90EF90DF90CF90BF9017
:101EF000AF909F908F900994EF92FF920F931F9352
:101F0000DC01ED91FC9100A0F1A1E02D09951F915C
:101F10000F91FF90EF9008950F931F93DC01ED91C7
:101F2000FC91068CF78DE02D09951F910F91089576
:101F30000F931F93DC01ED91FC91048CF58DE02D46
:101F400009951F910F910895DC01ED91FC9100849A
:101F5000F185E02D09943F924F925F926F927F92AC
:101F60008F929F92AF92BF92CF92DF92EF92FF92A9
:101F70000F931F93CF93DF935C017B014A016901AB
:101F8000390187E0680E711C93E0759467949A9507
:101F9000E1F72B01400E511E10E000E0312CD0E0A3
:101FA000C0E0CE0187709927330C892B59F4FE01CC
:101FB00083E0F595E7958A95E1F7E00FF11FE80DCD
:101FC000F91D349037FE0AC021E030E0A701B501C9
:101FD0006C0F7D1F87E894E00E94A40F2196CC1619
:101FE000DD06F9F68FEFE81AF80A060D171DE4145E
:101FF000F504A9F6DF91CF911F910F91FF90EF901B
:10200000DF90CF90BF90AF909F908F907F906F9018
:102010005F904F903F9008952F923F924F925F9222
:102020006F927F928F929F92AF92BF92CF92DF92E8
:10203000EF92FF920F931F93CF93DF9300D000D0C6
:1020400000D0CDB7DEB73C016A013E832D83FC8210
:10205000EB825801A41AB50AB7FE03C0B194A1944B
:10206000B1088D809E80861A970A97FE03C09194CE
:10207000819491088A149B045CF0902F812F0D812C
:102080001E819D838E839C2D8D2D6B01692F782F52
:102090000C151D055CF09D818E817E836D83692FFB
:1020A000782F902F812F8601C92ED82E1601201A45
:1020B000310A2B012D813E81421A530A57FE03C07B
:1020C000519441945108710137FE03C03FEFE31A68
:1020D000F30AF594E7948D819E81861797075CF546
:1020E000A1E0B0E0BA83A983C016D1064CF1D301B8
:1020F000ED91FC910484F585E02D2B813C81A801B4
:102100006D817E818A149B041CF04D815E81B80133
:10211000C3010995E418F508F7FE0AC02D813E8138
:1021200089819A81280F391F3E832D83E20CF31C8D
:102130000F5F1F4FD9CF2FEF3FEF3A832983D4CFC3
:1021400026960FB6F894DEBF0FBECDBFDF91CF91BC
:102150001F910F91FF90EF90DF90CF90BF90AF90C5
:102160009F908F907F906F905F904F903F902F90B7
:102170000895089520911603260F3327331F213227
:102180003105ECF420913A03FC0190E080E024302A
:1021900069F082E00895A09116032191AC014A50A4
:1021A0005D4FA40FB52FB11D2C930196861798F3A0
:1021B00080911603680F6093160380E0089581E014
:1021C000089510923A0381E080933C0310923B0300
:1021D00061E082E10E94C40561E083E10E94C405E0
:1021E000E9EBF0E080818E7F808380818D7F80832A
:1021F00088E48093B80085E48093BC000895CF9371
:10220000DF9391E09093F5028823B9F0C091B80074
:10221000D091BA008091BC008A7B8093BC0060E0C2
:1022200082E10E94C40560E083E10E94C4050E942F
:10223000E110D093BA00C093B800DF91CF91089518
:10224000E091B3038091B203E81730F4F0E0E0537B
:10225000FD4F808190E008958FEF9FEF089590915A
:10226000B3038091B2032FEF3FEF981748F4E92FA3
:10227000F0E0E053FD4F208130E09F5F9093B30387
:10228000C90108958091B2039091B303891B990B02
:102290000895CF92DF92EF92FF920F931F93CF9307
:1022A000DF937C01CB018A012091D703222389F09F
:1022B000EB016B01C40ED51ECC15DD0569F06991EB
:1022C000D701ED91FC910190F081E02DC7010995B6
:1022D000F3CF642F0E94BA10C801DF91CF911F91F4
:1022E0000F91FF90EF90DF90CF900895CF93DF9301
:1022F0001F92CDB7DEB769832091D7032223F9F06F
:102300002091D403203258F021E030E0FC013383E7
:10231000228390E080E00F90DF91CF91089580912B
:10232000D503E82FF0E0E055FD4F998190838F5F52
:102330008093D5038093D40381E090E0ECCF61E0FB
:10234000CE0101960E94BA10F7CFCF92DF92EF92A2
:10235000FF920F931F93CF93DF93D091D40381E02B
:10236000D13208F09CC0C091D6030E94B1076B0126
:102370007C0180913A0381116CC082E080933A0322
:1023800081E080933C038FEF8093390310925E03CA
:10239000D0935D03A0EBB2E0EDE3F3E080E0D8136F
:1023A0008DC010925F0380915F03CC0FC82BC09348
:1023B0005F0380913B03813009F084C010923B039E
:1023C0000E94B1076B017C0180915F038093BB0089
:1023D0008091F1029091F202A091F302B091F40287
:1023E000892B8A2B8B2BA1F00E94B1070091F1025F
:1023F0001091F2022091F3023091F4026C197D09E0
:102400008E099F09061717072807390708F442C0E5
:102410008091BC0083FDD8CF85EC8093BC000E94E6
:10242000B1076B017C0180913A03823009F44CC002
:10243000809139038F3F09F469C08091390380325C
:1024400009F466C080913903803309F463C084E0E5
:1024500026C08091F1029091F202A091F302B09116
:10246000F402892B8A2B8B2B09F483CF0E94B107AE
:102470000091F1021091F2022091F3023091F402E6
:102480006C197D098E099F09061717072807390758
:1024900008F06FCF8091F0020E94FF1085E010924B
:1024A000D5031092D4031092D703DF91CF911F91DF
:1024B0000F91FF90EF90DF90CF9008959D919193B1
:1024C0008F5F6DCF85EEA9CF8091F1029091F202DE
:1024D000A091F302B091F402892B8A2B8B2B09F483
:1024E000A2CF0E94B1070091F1021091F202209157
:1024F000F3023091F4026C197D098E099F090617C9
:1025000017072807390708F08ECFC4CF80E0C7CF60
:1025100082E0C5CF83E0C3CFEF92FF920F931F936A
:10252000CF93DF937C01C62F8091A4049091A504E2
:10253000009709F459C02091A80431E03093D703E3
:102540002093D6031092D5031092D403DC01ED91B1
:10255000FC910190F081E02D60E009958701EE2467
:10256000E394F12CD1E0C1508091A4049091A50492
:10257000CF3F91F1B0E2EB16F104D8F00E94A51123
:102580008091A4049091A5042091A804D093D7032E
:102590002093D6031092D5031092D403DC01ED9161
:1025A000FC910190F081E02D60E00995EE24E39428
:1025B000F12C8091A4049091A504F8016491DC01B0
:1025C000ED91FC910190F081E02D0995BFEFEB1AA0
:1025D000FB0A0F5F1F4FC7CFDF91CF911F910F9164
:1025E000FF90EF900C94A511E091B404F091B50424
:1025F00090818091BA048095892380838701C1509E
:1026000008F438C0F80184912091A2043091A30409
:10261000232B29F00E94BA0A0F5F1F4FF0CF28E04A
:1026200030E040E8E091B004F091B1049091B8043A
:10263000582F5423D9F05081952B9083E091B20408
:10264000F091B30490815091B904952B9083E0915F
:10265000B204F091B30450819091B9049095952300
:102660009083469521503109E9F6D6CF5081909557
:102670009523E3CFDF91CF911F910F91FF90EF90C2
:1026800008951F93CF93DF93EC018D8D9E8D00975E
:1026900021F1162F29A131E03093D7032093D603DF
:1026A0001092D5031092D403DC01ED91FC910190BE
:1026B000F081E02D60E009958D8D9E8DDC01ED911E
:1026C000FC910190F081E02D612F09958D8D9E8DFB
:1026D000DF91CF911F910C94A511ADA5BEA59C9142
:1026E0008BA9809589238C938B8D9C8D892B31F0C0
:1026F000862FDF91CF911F910C94BA0A28E030E029
:1027000080E8A9A5BAA599A9462F4823C1F04C9104
:10271000942B9C93ABA5BCA59C914AA9942B9C930C
:10272000ABA5BCA54C919AA9909594239C938695B2
:102730002150310931F7DF91CF911F9108954C91CC
:1027400090959423E6CFDF92EF92FF920F931F9321
:10275000CF93DF938091A4049091A504892B09F471
:10276000A5C02091BC043091BD044091BE0450919D
:10277000BF0460E074E284EF90E00E944C2120519D
:102780003109410951095695479537952795209369
:10279000B80064E085E89AE00E948C1280918B0476
:1027A00090918C048034910509F097C060E287E82D
:1027B00094E00E94411360918B04615E87E894E08D
:1027C0000E94411320918D0430918E04C901079617
:1027D00097FD079633E0959587953A95E1F7209117
:1027E0008B0430918C04829F8001839F100D929FF7
:1027F000100D1124C091A604D091A7048091A404C7
:102800009091A5040C0F1D1F009709F498C020910A
:10281000A80431E03093D7032093D6031092D50358
:102820001092D403DC01ED91FC910190F081E02D38
:1028300060E40995EE24E394F12CDD24D394809197
:10284000A4049091A5040C171D0709F44FC0B0E231
:10285000EB16F104D8F00E94A5118091A404909188
:10286000A5042091A804D092D7032093D6031092F8
:10287000D5031092D403DC01ED91FC910190F0811D
:10288000E02D60E40995EE24E394F12C8091A404FA
:102890009091A5046991DC01ED91FC910190F0818A
:1028A000E02D0995BFEFEB1AFB0AC9CF8091A20476
:1028B0009091A304892B31F08091C5049091C604B6
:1028C0000E94C10AE091B604F091B7049081809112
:1028D000BB048095892380835CCF60E087E894E027
:1028E0000E94411360918B04615068CF0E94A51132
:1028F0008091A4049091A504892B09F461C02091D2
:10290000C0043091C1044091C2045091C30460E0FE
:1029100074E284EF90E00E944C212051310941097A
:10292000510956954795379527952093B800DF9123
:10293000CF911F910F91FF90EF90DF900895E0915C
:10294000B404F091B50480819091BA04892B8083FE
:102950000C171D0769F289912091A2043091A304FC
:10296000232B19F00E94BA0AF3CF28E030E040E8A8
:10297000E091B004F091B1049091B804582F542321
:10298000D9F05081952B9083E091B204F091B3047B
:1029900090815091B904952B9083E091B204F0910D
:1029A000B30450819091B9049095952390834695F6
:1029B00021503109E9F6CCCF508190959523E3CF92
:1029C000E091B604F091B70480819091BB04892B0B
:1029D0008083ADCF1F93CF93DF93EC01162F8D8DA6
:1029E0009E8D892BB1F12DA93EA94FA958AD60E06C
:1029F00074E284EF90E00E944C212051310941099A
:102A0000510956954795379527952093B80066EA62
:102A1000111167EACE010E9441138D8D9E8D892B85
:102A200041F129AD3AAD4BAD5CAD60E074E284EFAD
:102A300090E00E944C2120513109410951095695DD
:102A40004795379527952093B800DF91CF911F9137
:102A500008958B8D9C8D892B21F08EAD9FAD0E94AA
:102A6000C10AEFA5F8A990818CA98095892380835C
:102A7000CECFEFA5F8A980819CA9892B8083E5CFD3
:102A800090E080E008950F931F93DC018BE08A9F14
:102A9000F0018B9FF00D1124E05AFC4F8081918151
:102AA0000196918380830681178120853185040FEB
:102AB000151F211D311D06831783208731879285BD
:102AC0006623D9F0228133812F5F3F4F33832283E6
:102AD000933010F091509287413A5F40C8F08BE0FC
:102AE0008A9FF0018B9FF00D1124E05AFC4F8285E4
:102AF000823370F48F5F82870BC0248135812F5F12
:102B00003F4F3583248382E39F32A8F79D5F9287EE
:102B10001F910F9108951F93CF93DF930E94C220BE
:102B200023E630E040E050E00E941A21DC01CB01B6
:102B30000196A11DB11DEC0121969F938F9389E50C
:102B400091E09F938F931F9210E21F938AED93E081
:102B50009F938F930E94F222DF93CF93DF93CF93C3
:102B600085ED91E09F938F931F921F938AEF93E0DF
:102B70009F938F930E94F222DF93CF938AEC91E090
:102B80009F938F931F921F938AE194E09F938F935B
:102B90000E94F2228DB79EB74A960FB6F8949EBF58
:102BA0000FBE8DBFDF91CF911F910895FC01019061
:102BB0000020E9F73197AF01481B590BBC0187E8AA
:102BC00094E00C943608CF92DF92EF92FF920F932D
:102BD0001F93CF93DF93CDB7DEB7A1970FB6F894CD
:102BE000DEBF0FBECDBF9C0150E040E019A28E01B8
:102BF0000F5D1F4F8AE0C82ED12CE12CF12CCA01A9
:102C0000B901A70196010E944C21605DF801629311
:102C10008F01211531054105510589F73097C9F01C
:102C2000CF010E94D6158C0183E691E00E94D61553
:102C3000800F911FA1960FB6F894DEBF0FBECDBFD7
:102C4000DF91CF911F910F91FF90EF90DF90CF9088
:102C5000089510E000E0E8CFCF93DF93D0E0C0E02C
:102C6000009719F00E94D615EC0183E691E00E94CE
:102C7000D6158C0F9D1FDF91CF9108950C94D6151A
:102C8000CF93DF93682F87E894E00E94FF0CEC015C
:102C900083E691E00E94D6158C0F9D1FDF91CF91A6
:102CA000089520918D0430918E04C901079697FDF7
:102CB000079623E0959587952A95E1F720918B0457
:102CC00030918C04829FA001839F500D929F500DE4
:102CD000112470E060E08091A6049091A7040C9408
:102CE000D522EF92FF920F931F93CF93DF93C0E60D
:102CF000D3E0FE01F12CE12C82819381E80EF91ED4
:102D00003B9683E0ED3AF807B9F7E0E6F3E010E030
:102D100000E084819581080F191F3B9683E0ED3A0E
:102D2000F807B9F70E94511681E090E090939A0459
:102D300080939904909398048093970480939B04C4
:102D400080939C0410929404109293041092960421
:102D50001092950482E791E00E942C161092940440
:102D6000109293048CE090E09093960480939504E5
:102D70008BE791E00E943E16C7010E94E315109276
:102D800094041092930488E190E0909396048093C9
:102D9000950482E891E00E943E16C8010E94E31566
:102DA000109294041092930484E290E0909396041D
:102DB0008093950488E891E00E943E16A0E6B3E077
:102DC00020E0E0E04FEF5FEF14966D917C91159756
:102DD000CB01880F991F860F971F12966D917C91DA
:102DE0001397861B970B4817590714F4AC01E22F71
:102DF0001B962F5F273041F786E691E0E73038F4E5
:102E0000F0E0EE0FFF1FE35FFE4F808191810E9493
:102E10002C16109294041092930480E390E0909307
:102E200096048093950480E991E00E943E1620E08C
:102E3000E0E040E053E86A817B81CB01880F991F75
:102E4000860F971F6C817D81861B970B481759074A
:102E500014F4AC01E22F2B962F5F273061F786E642
:102E600091E0E73038F4F0E0EE0FFF1FE35FFE4F34
:102E7000808191810E942C16DF91CF911F910F913B
:102E8000FF90EF900C94A313CF93DF93C82FD62F0E
:102E90000E94511681E090E090939A0480939904E7
:102EA000909398048093970480939B0480939C0450
:102EB0001092940410929304109296041092950428
:102EC00089E991E00E943E168D2F0E9440161092D3
:102ED00094041092930480E190E090939604809380
:102EE0009504CC2309F465C086EA91E00E942C1673
:102EF00010929404109293048EE290E090939604C2
:102F00008093950485EB91E00E943E168091D80352
:102F10009091D9038730910508F062C0880F991FFE
:102F2000FC01E35FFE4F808191810E942C160E947C
:102F3000A31361E0CC2309F456C084E00E94C405C9
:102F40004AE550E060E070E080E793E00E942306ED
:102F50006EE670E080E090E00E94D6074EE650E01A
:102F600060E070E087E994E00E94230662E870E088
:102F700080E090E00E94D6074CE850E060E070E00E
:102F800080E296E00E94230660EA70E080E090E034
:102F90000E94D60786E00E940A0864EF71E080E094
:102FA00090E00E94D60760E084E0DF91CF910C941E
:102FB000C40584EA91E00E942C16109294041092A9
:102FC00093048EE190E090939604809395048FEAA9
:102FD00091E00E943E1680917A040E94401688CFAC
:102FE00086E691E0A2CF85E00E94C40544E650E069
:102FF00060E070E08CEB92E00E94230668E770E0EE
:1030000080E090E00E94D6074CE850E060E070E07D
:103010008BE092E00E94230660EA70E080E090E09E
:103020000E94D6074CED50E060E070E088E891E047
:103030000E94230660EF70E080E090E00E94D607D7
:1030400086E00E940A0864EF71E080E090E00E9450
:10305000D60760E085E0A9CF0E94D02285ED80935D
:10306000BC008091F1029091F202A091F302B09124
:10307000F4020796A11DB11D23E0B695A79597957B
:1030800087952A95D1F72091BC0024FD03C01092AA
:103090003A0308954091F1025091F2026091F302D7
:1030A0007091F402452B462B472B69F30097A1053D
:1030B000B10541F02AE22A95F1F700C00197A10974
:1030C000B109E1CF8091F0020C94FF10BF92CF9232
:1030D000DF92EF92FF920F931F93CF93DF9300E65F
:1030E00013E0F801D0E0C0E08285C80FD11D3B9607
:1030F00023E0ED3AF207C1F7209709F46FC00E9470
:10310000C2209E01DD0F440B550B0E941A2130E0B6
:1031100020E090E080E0F8014285240F311D621725
:10312000730744F00196055F1F4F8730910599F7AB
:1031300090E080E09093D9038093D8038330910589
:1031400009F4A6C108F0FFC08130910509F413C14C
:10315000029709F047C00E94C22028E030E040E01A
:1031600050E00E941A216B017C0132E0C30ED11C99
:10317000E11CF11CDF92CF9281EE91E09F938F933F
:103180001F92C0E2CF938AED93E09F938F930E94AA
:10319000F222DF92CF9289EE91E09F938F931F925C
:1031A000CF938AEF93E09F938F930E94F222DF9256
:1031B000CF928AED91E09F938F931F92CF938AE1F4
:1031C00094E09F938F930E94F2228DB79EB748960A
:1031D0000FB6F8949EBF0FBE8DBF06C01092D903E4
:1031E0001092D8030E948B150E94C22022E030E08A
:1031F00040E050E00E941A2140E250E0672B682B2B
:10320000692B09F076C16AEF73E08AE394E00E94CB
:10321000E32240E250E06AE174E08AE594E00E9433
:10322000E32281E480937A04109259041092790485
:103230002FB7F8948091BB039091BC03A091BD037C
:10324000B091BE032FBF8093B6039093B703A093B2
:10325000B803B093B9030E94511681E090E09093B7
:103260009A04809399049093980480939704809390
:103270009B0480939C0410929404109293041092E7
:103280009604109295048BE592E00E942C16109201
:103290009404109293048CE090E0909396048093B1
:1032A00095048AED93E00E942C16109294041092DB
:1032B000930488E190E0909396048093950485EBC5
:1032C00091E00E943E168091D8039091D9038730F7
:1032D000910508F01EC1880F991FFC01E35FFE4FA6
:1032E000808191810E942C16109294041092930474
:1032F00088E290E0909396048093950485E692E0AE
:103300000E943E168AE394E00E942C1610929404C8
:103310001092930486E390E0909396048093950432
:1033200089E692E00E943E168AE594E00E942C16FF
:10333000DF91CF911F910F91FF90EF90DF90CF9091
:10334000BF900C94A3138530910509F4C3C008F411
:10335000B2C0069709F046CF6EE372E08AED93E0C3
:103360000E94DC2267E472E08AEF93E00E94DC2294
:1033700061E572E09BC00E94C22028E030E040E09E
:1033800050E00E941A216B017C01F2E0CF0ED11CAB
:10339000E11CF11C0E94C22024E030E040E050E03B
:1033A0000E941A21DC01CB010196A11DB11DEC0187
:1033B00021969F938F93DF92CF928CEB91E09F9316
:1033C0008F931F9230E2B32EBF928AED93E09F93CA
:1033D0008F930E94F222C601BE010E9491212DB757
:1033E0003EB7265F3F4F0FB6F8943EBF0FBE2DBFCE
:1033F000892B99F5DF93CF937F936F9388EC91E0BE
:103400009F938F931F92BF928AEF93E09F938F9326
:103410000E94F222EDB7FEB73A960FB6F894FEBFBF
:103420000FBEEDBFDF93CF93DF92CF9288EC91E098
:103430009F938F931F9280E28F938AE194E09F93F2
:103440008F930E94F2222DB73EB7265F3F4F0FB6F3
:10345000F8943EBF0FBE2DBFC7CEDF93CF93DF934F
:10346000CF93DF92CF9283ED91E09F938F931F9242
:10347000BF928AEF93E09F938F930E94F2228DB7C1
:103480009EB70C960FB6F8949EBF0FBE8DBFCACFE5
:1034900061EF71E08AED93E00E94DC226DEF71E054
:1034A0008AEF93E00E94DC226EEF71E08AE194E003
:1034B0000E94DC2299CE69E072E08AED93E00E94DE
:1034C000DC2266E172E08AEF93E00E94DC2265E193
:1034D00072E0ECCF61E272E08AED93E00E94DC22C0
:1034E0006AE272E08AEF93E00E94DC2262E372E01B
:1034F000DDCF6AE174E08AE394E00E94E32240E2D7
:1035000050E06AEF73E08AE594E00E94E32282E4EF
:1035100089CE86E691E0E6CE1F920F920FB60F920B
:1035200011242F933F938F939F93AF93BF938091D9
:10353000BB039091BC03A091BD03B091BE03309139
:10354000BA0323E0230F2D3758F50196A11DB11DB5
:103550002093BA038093BB039093BC03A093BD0355
:10356000B093BE038091BF039091C003A091C103AB
:10357000B091C2030196A11DB11D8093BF0390932A
:10358000C003A093C103B093C203BF91AF919F91B9
:103590008F913F912F910F900FBE0F901F90189514
:1035A00026E8230F0296A11DB11DD2CF1F920F92C4
:1035B0000FB60F9211242F933F934F935F936F9306
:1035C0007F938F939F93AF93BF93EF93FF938091DC
:1035D000C8039091C903A091CA03B091CB03892B72
:1035E0008A2B8B2BD1F19091C303E091C403F0910E
:1035F000C5038081892780838091C8039091C90386
:10360000A091CA03B091CB03181619061A061B061F
:103610009CF48091C8039091C903A091CA03B09112
:10362000CB030197A109B1098093C8039093C90303
:10363000A093CA03B093CB03FF91EF91BF91AF91D9
:103640009F918F917F916F915F914F913F912F91BA
:103650000F900FBE0F901F901895809102010E944D
:103660000A08EACF1F920F920FB60F9211242F93E0
:103670003F934F935F936F937F938F939F93AF93FA
:10368000BF93EF93FF938091B900887F803609F450
:103690004AC0F0F5883209F4A7C018F5803109F462
:1036A0009BC0B8F4882309F4F9C0883009F494C0A9
:1036B000FF91EF91BF91AF919F918F917F916F910A
:1036C0005F914F913F912F910F900FBE0F901F90E0
:1036D0001895883109F488C0803251F780933903F6
:1036E00014C0803409F49DC040F48033B9F38833AA
:1036F000F9F68093390385ECB0C0803509F485C0B4
:10370000883509F496C0883499F60E942E18D0CFD7
:10371000883909F48CC038F5883729F050F4883698
:1037200011F0803729F683E080933A031092380332
:1037300057C0883809F47BC0803919F0803809F007
:10374000B7CF80913803803208F071C0E091380320
:1037500081E08E0F809338038091BB00F0E0E85E3B
:10376000FC4F80833DC0803B39F0E0F4803A09F49F
:1037700079C0883A09F09CCF84E080933A03109294
:10378000170310921603E091B003F091B10309956D
:103790008091160381110FC081E08093160310926F
:1037A000F60209C0803C09F4A6CF883C09F4A3CFF7
:1037B000883B09F07DCFE091170381E08E0F809365
:1037C0001703F0E0EA50FD4F80818093BB00909199
:1037D00017038091160329C080915F038093BB007B
:1037E00085EC8093BC0064CF90915E0380915D0373
:1037F000981758F5E0915E0381E08E0F80935E0389
:10380000F0E0E35CFC4F8081E9CFE0915E0381E072
:103810008E0F80935E038091BB00F0E0E35CFC4F71
:10382000808390915E0380915D039817C8F285E8CC
:10383000D8CFE0915E0381E08E0F80935E0380918C
:10384000BB00F0E0E35CFC4F808380913C0381117E
:103850005CCF81E080933B0384EA8093BC001092AC
:103860003A0326CF85EC8093BC0010923A038091F6
:103870003803803230F4E0913803F0E0E85EFC4F2A
:1038800010826091380370E0E091AE03F091AF03D5
:1038900088E193E00995109238030ACF109239031A
:1038A00034CFABE7B4E013961C921E92129748EE09
:1038B00053E060E070E014964D935D936D937C93BC
:1038C00017978FE191E011969C938E93E7E8F4E0CF
:1038D0001382128220E830E03583248380E490E074
:1038E000978386833187208793878287168A1586F8
:1038F00014861786168681E0858B848B2FEF3FEF29
:10390000338B228B318B208B878B108E128E118EF6
:1039100081E391E091838083148E138EB68FA58FFF
:1039200010A2178E8FEF84A385A386A387A380A7F9
:1039300080E89AE1A6E0B0E085AB96ABA7ABB0AF6C
:1039400080EA96E8A1E0B0E081AF92AFA3AFB4AF58
:1039500080E586AF17AE0895789484B5826084BD03
:1039600084B5816084BD85B5826085BD85B5816083
:1039700085BD80916E00816080936E001092810001
:1039800080918100826080938100809181008160BC
:10399000809381008091800081608093800080917D
:1039A000B10084608093B1008091B0008160809309
:1039B000B00080917A00846080937A0080917A00D0
:1039C000826080937A0080917A00816080937A008F
:1039D00080917A00806880937A001092C1001092E2
:1039E000B3031092B2031092D5031092D4030E9435
:1039F000E11088E098E09093B1038093B00389E0F0
:103A000098E09093AF038093AE0362E082E00E945F
:103A1000F20562E083E00E94F20561E084E00E942A
:103A2000F20561E085E00E94F20561E086E00E9417
:103A3000F20560E084E00E94C40560E085E00E9439
:103A4000C40560E086E00E94C40580E480937C00A9
:103A500080917A00806480937A0080917A0086FD5C
:103A6000FCCF6091780070917900072E000C880BD4
:103A7000990B611571058105910511F00E941121C5
:103A8000E0E6F3E08AE0118210821382128215824E
:103A90001482168217821086118682873B9643E035
:103AA000ED3AF40781F78091A6049091A704892B41
:103AB00011F520918D0430918E04C901079697FD70
:103AC0000796B3E095958795BA95E1F720918B0419
:103AD00030918C04AC01429FC001439F900D529FD6
:103AE000900D11240E94AB219093A7048093A6040B
:103AF000892B09F4E8C20E94511620918D0430915F
:103B00008E0480918B0490918C04B901213231058F
:103B10000CF4B4C06054710977FF02C06F5F7F4F2F
:103B2000759567958255910997FD019600E410E01F
:103B300022E530E04AE657E0959587950E94AB0F65
:103B400082E08093A9048091A4049091A504892B1C
:103B500009F4A7C08CE38093A8041092B3031092D9
:103B6000B2031092D5031092D4030E94E11088E0B2
:103B700098E09093B1038093B00389E098E090932C
:103B8000AF038093AE038091AF0487FD1EC061E058
:103B90000E94F20561E08091AF040E94C40561E0DB
:103BA00070E080E090E00E94D60760E08091AF0472
:103BB0000E94C4056AE070E080E090E00E94D607B1
:103BC00061E08091AF040E94C4058091A4049091AB
:103BD000A504892B09F424C12091BC043091BD04B3
:103BE0004091BE045091BF0460E074E284EF90E025
:103BF0000E944C21205131094109510956954795A0
:103C0000379527952093B80064E086E895E00E94F8
:103C10008C1260918D04615087E894E00E944113FA
:103C200064E082E895E00E948C128091A90464E12E
:103C3000813009F460E187E894E00E94411364E078
:103C40008EE795E00E948C128FE88093C4048091E7
:103C50008B0490918C048038910509F006C2809104
:103C60008D0490918E048034910509F00EC28091EC
:103C7000A904813009F4EBC08FECEAC060527109ED
:103C800077FF02C06F5F7F4F7595679583579109E6
:103C900097FD019600E210E023E730E04AE855E0A6
:103CA0004BCF61E08091AD040E94F20561E080910C
:103CB000AE040E94F2058091AD04082E000C990B11
:103CC000FC01E059F54FE491F0E0EE0FFF1FEA59D7
:103CD000F54F259134913093B5042093B404FC0141
:103CE000EE5AF54FE491E093BA048091AE04082EA9
:103CF000000C990BFC01E059F54FE491F0E0EE0F58
:103D0000FF1FEA59F54FA591B491B093B704A09362
:103D1000B604FC01EE5AF54FE491E093BB048C919C
:103D2000E82BEC938091A2049091A304892B09F4D1
:103D300034C0CFB7F8948091AD03811127C0EAE772
:103D4000FAE08491ECE5FAE09491E82FF0E0EE0FD0
:103D5000FF1FE65DF54FA591B491EC91E92321F4A5
:103D600061E08AE00E94C40561E08AE00E94F205F9
:103D70008CB580618CBD8CB580648CBD61E08DE0BC
:103D80000E94F20561E08BE00E94F2058091AD0394
:103D90008F5F8093AD03CFBFF6CE61E08091AB041F
:103DA0000E94F20561E08091AC040E94F2058091CE
:103DB000AB04082E000C990BFC01E059F54FE4917F
:103DC000F0E0EE0FFF1FEA59F54F25913491309343
:103DD000B1042093B004FC01EE5AF54FE491E09356
:103DE000B8048091AC04082E000C990BFC01E0593A
:103DF000F54FE491F0E0EE0FFF1FEA59F54FA59162
:103E0000B491B093B304A093B204FC01EE5AF54F01
:103E1000E491E093B9048C91E095E823EC93B3CE60
:103E20008091A2049091A304892B31F08091C50464
:103E30009091C6040E94C10AE091B604F091B704C3
:103E400090818091BB04809589238083DDCE8FE9AA
:103E50008093C404C2E16AED87E894E00E944113B4
:103E60006C2F87E894E00E94411361E887E894E0B2
:103E70000E9441136091C40487E894E00E944113BA
:103E800069ED87E894E00E9441138091A90461EFF5
:103E9000813009F462E287E894E00E94411366E011
:103EA00088E795E00E948C128091A4049091A5046B
:103EB000892B09F4FEC02091C0043091C1044091C7
:103EC000C2045091C30460E074E284EF90E00E9469
:103ED0004C21205131094109510956954795379593
:103EE00027952093B8000E9466180AE010E080E051
:103EF000E82E80E0F82E82E00E949B055C01D1E074
:103F0000892B09F4D0E083E00E949B05DD24D39443
:103F1000009709F4D12CC0910101CC2321F0C1E01C
:103F2000AB2809F0C0E020910001222319F0892B71
:103F300009F4CAC0CC2309F48DC0C0E0CC24C394DA
:103F400080917A04813409F0C12C8FB7F8944091A4
:103F5000BB035091BC036091BD037091BE038FBF42
:103F60008091B6039091B703481B590B6C2D80913B
:103F7000D8039091D9030E9443158091B403909186
:103F8000B50301969093B5038093B40361E48C2D3F
:103F90000E94441760EB74E080E090E00E94D60736
:103FA0008091B4039091B503B8010E947D21892BC3
:103FB00041F40E94711664EC79E080E090E00E9488
:103FC000D6070E946618CC2309F444C0C1E0809152
:103FD0007A04823409F0C0E08FB7F8944091BB03B3
:103FE0005091BC036091BD037091BE038FBF80915F
:103FF000B6039091B703481B590B6C2F8091D803DF
:104000009091D9030E9443158091B4039091B50318
:1040100001969093B5038093B40362E48C2F0E94C1
:10402000441760EB74E080E090E00E94D607809136
:10403000B4039091B503B8010E947D21892B41F40E
:104040000E94711664EC79E080E090E00E94D6074F
:104050000E946618D0930101D0920001E114F1048E
:1040600009F449CF0E94000046CF8036910589F4BB
:1040700080918D0490918E04409739F48091A90429
:10408000813029F08FEA8093C404C2E0E4CE80E15D
:10409000FACF80349105C9F780918D0490918E04F8
:1040A000809799F78091A904813009F0E5CD80E1EE
:1040B000CFCEE091B604F091B70480819091BB041B
:1040C000892B808310CFFFCFC11138CF7FCF81E301
:1040D00091E090938804809387048091A604909146
:1040E000A704009711F00C94472208958F929F9295
:1040F000AF92BF92CF92DF92EF92FF92CF93DF9376
:10410000EC01688179818A819B8161157105810546
:10411000910521F464E279ED8BE597E02DE133EF31
:1041200041E050E00E941A2149015A019B01AC0173
:10413000A7EAB1E40E9439216B017C01ACEEB4EF37
:10414000A50194010E944721C60ED71EE81EF91E44
:10415000F7FE06C081E0C81AD108E10880E8F80A35
:10416000C882D982EA82FB82C701B6019F77DF91BC
:10417000CF91FF90EF90DF90CF90BF90AF909F9046
:104180008F9008958F929F92AF92BF92CF92DF92BD
:10419000EF92FF92609103017091040180910501FB
:1041A00090910601611571058105910521F464E284
:1041B00079ED8BE597E02DE133EF41E050E00E948F
:1041C0001A2149015A019B01AC01A7EAB1E40E94FE
:1041D00039216B017C01ACEEB4EFA50194010E9482
:1041E0004721C60ED71EE81EF91EF7FE06C081E065
:1041F000C81AD108E10880E8F80AC0920301D092F9
:104200000401E0920501F0920601C701B6019F7713
:10421000FF90EF90DF90CF90BF90AF909F908F90E6
:1042200008956093030170930401809305019093B6
:1042300006010895052E97FB1EF400940E9431217B
:1042400057FD07D00E944C2107FC03D04EF40C947C
:10425000312150954095309521953F4F4F4F5F4FFD
:10426000089590958095709561957F4F8F4F9F4FE2
:1042700008950E946E21A59F900DB49F900DA49F5C
:10428000800D911D11240895B7FF0C9439210E94CF
:104290003921821B930B0895A1E21A2EAA1BBB1B86
:1042A000FD010DC0AA1FBB1FEE1FFF1FA217B30702
:1042B000E407F50720F0A21BB30BE40BF50B661F18
:1042C000771F881F991F1A9469F7609570958095DC
:1042D00090959B01AC01BD01CF010895A29FB00153
:1042E000B39FC001A39F700D811D1124911DB29F2A
:1042F000700D811D1124911D0895AA1BBB1B51E156
:1043000007C0AA1FBB1FA617B70710F0A61BB70B45
:10431000881F991F5A95A9F780959095BC01CD01EA
:10432000089597FB072E16F4009407D077FD09D067
:104330000E947D2107FC05D03EF4909581959F4F0A
:104340000895709561957F4F0895EE0FFF1F0590BA
:10435000F491E02D09940F931F93CF93DF93823054
:10436000910510F482E090E0E091C904F091CA0454
:1043700030E020E0B0E0A0E0309799F4211531055D
:1043800009F44AC0281B390B24303105D8F58A813D
:104390009B816115710589F1FB0193838283FE0185
:1043A00011C0408151810281138148175907E0F003
:1043B0004817590799F4109761F012960C931297C9
:1043C00013961C933296CF01DF91CF911F910F91DD
:1043D00008950093C9041093CA04F4CF2115310540
:1043E00051F04217530738F0A901DB019A01BD01D2
:1043F000DF01F801C1CFEF01F9CF9093CA04809398
:10440000C904CDCFFE01E20FF31F81939193225097
:10441000310939832883D7CF2091C7043091C8044C
:10442000232B41F42091090130910A013093C804F3
:104430002093C7042091070130910801211531050F
:1044400041F42DB73EB740910B0150910C01241B54
:10445000350BE091C704F091C804E217F307A0F40C
:104460002E1B3F0B2817390778F0AC014E5F5F4FCA
:104470002417350748F04E0F5F1F5093C804409330
:10448000C704819391939FCFF0E0E0E09CCFCF935E
:10449000DF930097E9F0FC01329713821282A0911A
:1044A000C904B091CA04ED0130E020E01097A1F4F6
:1044B00020813181820F931F2091C7043091C8045D
:1044C0002817390709F061C0F093C804E093C704C6
:1044D000DF91CF910895EA01CE17DF07E8F54A8111
:1044E0005B819E0141155105B1F7E901FB83EA8328
:1044F00049915991C40FD51FEC17FD0761F48081D4
:1045000091810296840F951FE901998388838281A6
:1045100093819B838A83F0E0E0E012968D919C91D9
:1045200013970097B9F52D913C911197CD01029603
:10453000820F931F2091C7043091C80428173907B0
:1045400039F6309751F51092CA041092C904B0930D
:10455000C804A093C704BCCFD383C28340815181D8
:10456000840F951FC817D90761F44E5F5F4F88818C
:104570009981480F591F518340838A819B8193837E
:1045800082832115310509F0B0CFF093CA04E0937E
:10459000C9049ECFFD01DC01C0CF13821282D7CFA8
:1045A00081E090E0F8940C94D725DC0101C06D9374
:1045B00041505040E0F70895FB01DC0101900D925D
:1045C0000020E1F70895FB01DC014150504048F024
:1045D00001900D920020C9F701C01D92415050403A
:1045E000E0F70895AEE0B0E0E8EFF2E20C94AE251B
:1045F0000D891E898F89988D26E02C831A83098363
:1046000097FF02C080E090E801979E838D83AE0102
:10461000455E5F4F698D7A8DCE0101960E942223FF
:104620004D815E8157FD0AC02F813885421753079F
:104630000CF49A01020F131FF80110822E96E4E089
:104640000C94CA25ABE0B0E0E8E2F3E20C94A025BC
:104650007C013B018A01FC0117821682838181FF64
:10466000C8C1CE0101965C01F7019381F30193FD6E
:10467000859193FF81913F01882309F453C18532CD
:1046800039F493FD859193FF81913F01853229F49F
:10469000B70190E00E941225E7CF912C212C312CFC
:1046A000FFE1F31538F08B3211F190F4803209F10B
:1046B000833229F137FC3CC020ED280F2A3050F519
:1046C00036FE20C08AE0989E200D1124922E06C04E
:1046D0008D3291F0803371F7689430F8F30193FDD7
:1046E000859193FF81913F018111DACF21C06894B8
:1046F00031F8689432F8F2CF689433F8EFCF6894C9
:1047000034F8ECCFEAE02E9E200D1124222E68947E
:1047100035F8E4CF8E3229F436FC04C1689436F8BB
:10472000DDCF8C3619F4689437F8D8CF8836B1F2DB
:10473000982F9F7D95549330E0F08336A1F1833715
:10474000C1F1833509F063C02801F2E04F0E511C1E
:10475000F801C080D180692D70E036FC02C06FEF97
:104760007FEFC6010E94FC244C01689437F8820157
:104770000AC00C5F1F4FFFE3F98388248394912CB8
:104780006501E89437F833FE2DC0522C8114910452
:1047900071F5552009F468CFB70180E290E00E94DE
:1047A00012255A94F6CFF801808189830E5F1F4F3E
:1047B000E4CF2801F2E04F0E511CF801C080D180F7
:1047C000692D70E036FC02C06FEF7FEFC6010E94DA
:1047D00007254C018201D5CFB70180E290E00E940D
:1047E00012252A942814190409F0B0F7CECFF60147
:1047F00037FC859137FE81916F01B70190E00E94EF
:10480000122551105A94F1E08F1A9108BFCF8436C7
:1048100019F0893609F077C0F80137FE6BC0608166
:104820007181828193810C5F1F4FF32DFF763F2EA4
:1048300097FF09C090958095709561957F4F8F4F38
:104840009F4F689437F82AE030E0A5010E94422586
:10485000C82ECA188C2C432C36FE0CC0E89440F8A5
:10486000C91440F434FE05C032FC03C0F32DFE7EB3
:104870004F2E892C44FE95C0FE01EC0DF11D808168
:10488000803309F087C0242D297E422E842D887024
:10489000582E43FC95C040FE8FC09C2C821418F407
:1048A0002C0C922C981844FE91C0B70180E390E044
:1048B0000E94122542FE09C088E790E041FE02C036
:1048C00088E590E0B7010E941225C91408F48AC057
:1048D000CA94D12C9FEFC91AD90ACA0CDB1CF60165
:1048E00082916F01B70190E00E941225AC14BD04C3
:1048F000B1F74FCF60817181072E000C880B990BA7
:104900000E5F1F4F92CFD32CE894D4F82AE030E00A
:10491000853739F1232D297FD22E8F3601F148F4C6
:104920008835A9F0F701868197812B96E2E10C94F6
:10493000BC25803749F08837A9F7D4FE02C06894B7
:10494000D2F820E130E00DC06894D4F8F6CF34FE00
:1049500003C0822F8660D82E20E132E002C028E01A
:1049600030E0F801D7FE0FC06081718182819381B0
:104970000C5F1F4FA5010E944225C82ECA183D2C6E
:10498000E89437F867CF6081718190E080E00E5F36
:104990001F4FF0CF42FC02C0839478CF839483945E
:1049A00075CF842D867809F471CFF6CFB70180E2F8
:1049B00090E00E94122583948214C0F3512C73CF8F
:1049C000522C5818821408F46ECFF8CF842D8678B4
:1049D00009F47BCF8BE241FE80E247FC8DE2B70118
:1049E00090E071CFB70180E390E00E9412259A9485
:1049F0006CCF8FEF9FEF99CFFC0105906150704015
:104A00000110D8F7809590958E0F9F1F0895FC0197
:104A10006150704001900110D8F7809590958E0FED
:104A20009F1F08950F931F93CF93DF93182F092F84
:104A3000EB018B8181FD09C01FEF0FEF812F902FBC
:104A4000DF91CF911F910F91089582FF14C02E81A5
:104A50003F818C819D81281739073CF4E881F981D9
:104A6000CF0101969983888310838E819F8101965F
:104A70009F838E83E3CFE885F985812F0995892B64
:104A8000A1F3DACFFA01AA27283051F1203181F1C0
:104A9000E8946F936E7F6E5F7F4F8F4F9F4FAF4F46
:104AA000B1E03ED0B4E03CD0670F781F891F9A1F59
:104AB000A11D680F791F8A1F911DA11D6A0F711D0D
:104AC000811D911DA11D20D009F468943F912AE019
:104AD000269F11243019305D3193DEF6CF01089501
:104AE000462F4770405D4193B3E00FD0C9F7F6CF32
:104AF000462F4F70405D4A3318F0495D31FD4052FA
:104B0000419302D0A9F7EACFB4E0A695979587958F
:104B100077956795BA95C9F700976105710508956E
:104B20009B01AC010A2E069457954795379527951A
:104B3000BA95C9F7620F731F841F951FA01D0895B2
:104B40002F923F924F925F926F927F928F929F929D
:104B5000AF92BF92CF92DF92EF92FF920F931F938B
:104B6000CF93DF93CDB7DEB7CA1BDB0B0FB6F8943C
:104B7000DEBF0FBECDBF09942A88398848885F847C
:104B80006E847D848C849B84AA84B984C884DF80ED
:104B9000EE80FD800C811B81AA81B981CE0FD11DD1
:104BA0000FB6F894DEBF0FBECDBFED01089515E03E
:104BB000C6E4D5E004C0FE010E94A5212196C734B9
:104BC000D107C9F7F894FFCF0101FF0100000000F1
:104BD00000CB0480006D02770281028C0291029862
:104BE00002A402000000007611491140157105422F
:104BF000112F11201100000000FF0C36084015B9DC
:104C0000100A0A7105A40F7C0F980F8C0F0C1071FD
:104C100005C50AEA147A09C309C50EA80E300ED1DB
:104C20000D5320785E2564206478000D0A004465E9
:104C300073636F6E6F6369646100526573756D6550
:104C40006E3A004269656E3A20004D616C3A200070
:104C5000446562696C3A20004675657274653A2055
:104C600000456C6567697374653A2000494E434F8F
:104C700052524543544F004572613A2000546970C6
:104C80006F3A200053202564785E25642064780004
:104C90002564785E2564202B2043002564785E25FA
:104CA000642F2564202B2043005320256420647842
:104CB00000256478202B204300532073696E2878E8
:104CC00029206478002D636F73287829202B2043D6
:104CD000005320636F73287829206478002D73694E
:104CE0006E287829202B2043005320655E782064AD
:104CF0007800655E78202B204300782A655E28784E
:104D00002D31292B43005320312F78206478006CFB
:104D10006E7C787C202B204300312F785E32202B54
:104D2000204300496E74656772616C3A0041292026
:104D30000042292000506F74656E636961730050F2
:104D40006F742E20636F656600436F6E7374616EBF
:104D50007465730053656E6F00436F73656E6F000B
:104D60004578706F6E656E6369616C004C6F67614A
:084D70007269746D6963610052
:107E0000112484B714BE81FFF0D085E080938100F7
:107E100082E08093C00088E18093C10086E0809377
:107E2000C20080E18093C4008EE0C9D0259A86E02C
:107E300020E33CEF91E0309385002093840096BBD3
:107E4000B09BFECF1D9AA8958150A9F7CC24DD24C4
:107E500088248394B5E0AB2EA1E19A2EF3E0BF2EE7
:107E6000A2D0813461F49FD0082FAFD0023811F036
:107E7000013811F484E001C083E08DD089C08234E0
:107E800011F484E103C0853419F485E0A6D080C0E4
:107E9000853579F488D0E82EFF2485D0082F10E0AE
:107EA000102F00270E291F29000F111F8ED06801E7
:107EB0006FC0863521F484E090D080E0DECF843638
:107EC00009F040C070D06FD0082F6DD080E0C81688
:107ED00080E7D80618F4F601B7BEE895C0E0D1E017
:107EE00062D089930C17E1F7F0E0CF16F0E7DF06D8
:107EF00018F0F601B7BEE89568D007B600FCFDCFD4
:107F0000A601A0E0B1E02C9130E011968C91119780
:107F100090E0982F8827822B932B1296FA010C0160
:107F200087BEE89511244E5F5F4FF1E0A038BF0790
:107F300051F7F601A7BEE89507B600FCFDCF97BE46
:107F4000E89526C08437B1F42ED02DD0F82E2BD052
:107F50003CD0F601EF2C8F010F5F1F4F84911BD097
:107F6000EA94F801C1F70894C11CD11CFA94CF0C13
:107F7000D11C0EC0853739F428D08EE10CD085E9AC
:107F80000AD08FE07ACF813511F488E018D01DD067
:107F900080E101D065CF982F8091C00085FFFCCF94
:107FA0009093C60008958091C00087FFFCCF809118
:107FB000C00084FD01C0A8958091C6000895E0E648
:107FC000F0E098E1908380830895EDDF803219F02E
:107FD00088E0F5DFFFCF84E1DECF1F93182FE3DFCA
:107FE0001150E9F7F2DF1F91089580E0E8DFEE27F6
:047FF000FF270994CA
:027FFE00040479
:00000001FF
